S01200004153554D6F62694361722E737265638C
S11300000C942A000C943C000C943C000C943C008E
S11300100C943C000C943C000C943C000C943C006C
S11300200C943C000C943C000C943C000C943C005C
S11300300C943C000C943C000C943C000C943C004C
S11300400C943C000C943C000C943C000C943C003C
S11300500C943C0011241FBECFE5D8E0DEBFCDBF19
S113006020E0A0E6B0E001C01D92A436B207E1F79B
S11300700E943E000C946D010C94000080E895E20F
S11300800E9422010E944701C82F863419F40E945D
S113009059000AC0823419F40E948A00F3CF8235D1
S11300A019F40E94BC00EECFCC3461F70E94EF003B
S11300B0E9CF48B381E090E09C010090600002C069
S11300C0220F331F0A94E2F7242B28BB38B3AC0168
S11300D00090620002C0440F551F0A94E2F7242FD7
S11300E02095232328BB48B39C010090610002C0E3
S11300F0220F331F0A94E2F7242B28BB28B3009065
S1130100630002C0880F991F0A94E2F78095822346
S113011088BB089538B381E090E0AC0100906000A2
S113012002C0440F551F0A94E2F7242F209523237D
S113013028BB48B39C010090620002C0220F331F09
S11301400A94E2F7242B28BB38B3AC010090610079
S113015002C0440F551F0A94E2F7242F209523234D
S113016028BB28B30090630002C0880F991F0A942B
S1130170E2F7822B88BB089538B381E090E0AC01AC
S11301800090600002C0440F551F0A94E2F7242F28
S11301902095232328BB48B39C010090620002C031
S11301A0220F331F0A94E2F7242B28BB38B3AC0187
S11301B00090610002C0440F551F0A94E2F7242FF7
S11301C02095232328BB28B30090630002C0880F26
S11301D0991F0A94E2F78095822388BB089538B367
S11301E081E090E0AC010090600002C0440F551F14
S11301F00A94E2F7242F2095232328BB38B3AC01BB
S11302000090620002C0440F551F0A94E2F7242FA5
S11302102095232328BB48B39C010090610002C0B1
S1130220220F331F0A94E2F7242B28BB28B3009033
S1130230630002C0880F991F0A94E2F78095822315
S113024088BB0895092E000CAA0BBB0B880F991FBD
S1130250AA1FBB1F880F991FAA1FBB1F9C01AD01BA
S1130260220F331F441F551F220F331F441F551FD6
S113027060E074E284EF90E00E944B012150310968
S113028029B930BD88E18AB986E080BD08955F9BB5
S1130290FECF8CB10895A1E21A2EAA1BBB1BFD014F
S11302A00DC0AA1FBB1FEE1FFF1FA217B307E40751
S11302B0F50720F0A21BB30BE40BF50B661F771FA9
S11302C0881F991F1A9469F7609570958095909589
S11102D09B01AC01BD01CF010895F894FFCF4E
S9030000FC
