S01200004153554D6F62694361722E737265638C
S11300000C942A000C9434000C9434000C943400A6
S11300100C9434000C9434000C9434000C9434008C
S11300200C9434000C9434000C9434000C9434007C
S11300300C9434000C9434000C9434000C9434006C
S11300400C9434000C9434000C9434000C9434005C
S11300500C94340011241FBECFE5D8E0DEBFCDBF21
S11300600E9436000C9488000C94000080E895E20D
S11300700E943D000E946200FDCF092E000CAA0BD5
S1130080BB0B880F991FAA1FBB1F880F991FAA1F9C
S1130090BB1F9C01AD01220F331F441F551F220FAC
S11300A0331F441F551F60E074E284EF90E00E9408
S11300B066002150310929B930BD88E18AB986E04A
S11300C080BD08955F9BFECF8CB10895A1E21A2EE6
S11300D0AA1BBB1BFD010DC0AA1FBB1FEE1FFF1FE8
S11300E0A217B307E407F50720F0A21BB30BE40B38
S11300F0F50B661F771F881F991F1A9469F760957F
S11301007095809590959B01AC01BD01CF01089538
S1070110F894FFCF8D
S9030000FC
